{
  "contractName": "MultiSigWallet",
  "abi": [
    {
      "inputs": [
        {
          "internalType": "address[]",
          "name": "_owners",
          "type": "address[]"
        },
        {
          "internalType": "uint256",
          "name": "_numConfirmationsRequired",
          "type": "uint256"
        }
      ],
      "stateMutability": "nonpayable",
      "type": "constructor"
    },
    {
      "anonymous": false,
      "inputs": [
        {
          "indexed": true,
          "internalType": "address",
          "name": "owner",
          "type": "address"
        },
        {
          "indexed": true,
          "internalType": "uint256",
          "name": "txIndex",
          "type": "uint256"
        }
      ],
      "name": "ConfirmTransaction",
      "type": "event"
    },
    {
      "anonymous": false,
      "inputs": [
        {
          "indexed": true,
          "internalType": "address",
          "name": "sender",
          "type": "address"
        },
        {
          "indexed": false,
          "internalType": "uint256",
          "name": "amount",
          "type": "uint256"
        },
        {
          "indexed": false,
          "internalType": "uint256",
          "name": "balance",
          "type": "uint256"
        }
      ],
      "name": "Deposit",
      "type": "event"
    },
    {
      "anonymous": false,
      "inputs": [
        {
          "indexed": true,
          "internalType": "address",
          "name": "owner",
          "type": "address"
        },
        {
          "indexed": true,
          "internalType": "uint256",
          "name": "txIndex",
          "type": "uint256"
        }
      ],
      "name": "ExecuteTransaction",
      "type": "event"
    },
    {
      "anonymous": false,
      "inputs": [
        {
          "indexed": true,
          "internalType": "address",
          "name": "owner",
          "type": "address"
        },
        {
          "indexed": true,
          "internalType": "uint256",
          "name": "txIndex",
          "type": "uint256"
        }
      ],
      "name": "RevokeTransaction",
      "type": "event"
    },
    {
      "anonymous": false,
      "inputs": [
        {
          "indexed": true,
          "internalType": "address",
          "name": "owner",
          "type": "address"
        },
        {
          "indexed": true,
          "internalType": "uint256",
          "name": "txIndex",
          "type": "uint256"
        },
        {
          "indexed": true,
          "internalType": "address",
          "name": "to",
          "type": "address"
        },
        {
          "indexed": false,
          "internalType": "uint256",
          "name": "value",
          "type": "uint256"
        },
        {
          "indexed": false,
          "internalType": "bytes",
          "name": "data",
          "type": "bytes"
        }
      ],
      "name": "SubmitTransaction",
      "type": "event"
    },
    {
      "inputs": [
        {
          "internalType": "uint256",
          "name": "",
          "type": "uint256"
        },
        {
          "internalType": "address",
          "name": "",
          "type": "address"
        }
      ],
      "name": "isConfirmed",
      "outputs": [
        {
          "internalType": "bool",
          "name": "",
          "type": "bool"
        }
      ],
      "stateMutability": "view",
      "type": "function",
      "constant": true
    },
    {
      "inputs": [],
      "name": "numConfirmationsRequired",
      "outputs": [
        {
          "internalType": "uint256",
          "name": "",
          "type": "uint256"
        }
      ],
      "stateMutability": "view",
      "type": "function",
      "constant": true
    },
    {
      "inputs": [
        {
          "internalType": "uint256",
          "name": "",
          "type": "uint256"
        }
      ],
      "name": "owners",
      "outputs": [
        {
          "internalType": "address",
          "name": "",
          "type": "address"
        }
      ],
      "stateMutability": "view",
      "type": "function",
      "constant": true
    },
    {
      "inputs": [
        {
          "internalType": "uint256",
          "name": "",
          "type": "uint256"
        }
      ],
      "name": "transactions",
      "outputs": [
        {
          "internalType": "address",
          "name": "to",
          "type": "address"
        },
        {
          "internalType": "uint256",
          "name": "value",
          "type": "uint256"
        },
        {
          "internalType": "bytes",
          "name": "data",
          "type": "bytes"
        },
        {
          "internalType": "bool",
          "name": "executed",
          "type": "bool"
        },
        {
          "internalType": "uint256",
          "name": "numConfirmations",
          "type": "uint256"
        }
      ],
      "stateMutability": "view",
      "type": "function",
      "constant": true
    },
    {
      "stateMutability": "payable",
      "type": "receive",
      "payable": true
    },
    {
      "inputs": [
        {
          "internalType": "address",
          "name": "_to",
          "type": "address"
        },
        {
          "internalType": "uint256",
          "name": "_value",
          "type": "uint256"
        },
        {
          "internalType": "bytes",
          "name": "_data",
          "type": "bytes"
        }
      ],
      "name": "submitTransaction",
      "outputs": [],
      "stateMutability": "nonpayable",
      "type": "function"
    },
    {
      "inputs": [
        {
          "internalType": "uint256",
          "name": "_txIndex",
          "type": "uint256"
        }
      ],
      "name": "confirmTransaction",
      "outputs": [],
      "stateMutability": "nonpayable",
      "type": "function"
    },
    {
      "inputs": [
        {
          "internalType": "uint256",
          "name": "_txIndex",
          "type": "uint256"
        }
      ],
      "name": "executeTransaction",
      "outputs": [],
      "stateMutability": "nonpayable",
      "type": "function"
    },
    {
      "inputs": [
        {
          "internalType": "uint256",
          "name": "_txIndex",
          "type": "uint256"
        }
      ],
      "name": "revokeConfirmation",
      "outputs": [],
      "stateMutability": "nonpayable",
      "type": "function"
    },
    {
      "inputs": [],
      "name": "getOwners",
      "outputs": [
        {
          "internalType": "address[]",
          "name": "",
          "type": "address[]"
        }
      ],
      "stateMutability": "view",
      "type": "function",
      "constant": true
    },
    {
      "inputs": [],
      "name": "getTransactionCount",
      "outputs": [
        {
          "internalType": "uint256",
          "name": "",
          "type": "uint256"
        }
      ],
      "stateMutability": "view",
      "type": "function",
      "constant": true
    },
    {
      "inputs": [
        {
          "internalType": "uint256",
          "name": "_txIndex",
          "type": "uint256"
        }
      ],
      "name": "getTransaction",
      "outputs": [
        {
          "internalType": "address",
          "name": "to",
          "type": "address"
        },
        {
          "internalType": "uint256",
          "name": "value",
          "type": "uint256"
        },
        {
          "internalType": "bytes",
          "name": "data",
          "type": "bytes"
        },
        {
          "internalType": "bool",
          "name": "executed",
          "type": "bool"
        },
        {
          "internalType": "uint256",
          "name": "numConfirmations",
          "type": "uint256"
        }
      ],
      "stateMutability": "view",
      "type": "function",
      "constant": true
    }
  ],
  "bytecode": "0x608060405234801562000010575f80fd5b50604051620024f1380380620024f18339818101604052810190620000369190620004ea565b5f8251116200007c576040517f08c379a00000000000000000000000000000000000000000000000000000000081526004016200007390620005ac565b60405180910390fd5b5f811180156200008d575081518111155b620000cf576040517f08c379a0000000000000000000000000000000000000000000000000000000008152600401620000c69062000640565b60405180910390fd5b5f5b8251811015620002c4575f838281518110620000f257620000f162000660565b5b602002602001015190505f73ffffffffffffffffffffffffffffffffffffffff168173ffffffffffffffffffffffffffffffffffffffff16036200016d576040517f08c379a00000000000000000000000000000000000000000000000000000000081526004016200016490620006db565b60405180910390fd5b60015f8273ffffffffffffffffffffffffffffffffffffffff1673ffffffffffffffffffffffffffffffffffffffff1681526020019081526020015f205f9054906101000a900460ff1615620001fa576040517f08c379a0000000000000000000000000000000000000000000000000000000008152600401620001f19062000749565b60405180910390fd5b6001805f8373ffffffffffffffffffffffffffffffffffffffff1673ffffffffffffffffffffffffffffffffffffffff1681526020019081526020015f205f6101000a81548160ff0219169083151502179055505f81908060018154018082558091505060019003905f5260205f20015f9091909190916101000a81548173ffffffffffffffffffffffffffffffffffffffff021916908373ffffffffffffffffffffffffffffffffffffffff160217905550508080620002bb9062000796565b915050620000d1565b50806002819055505050620007e2565b5f604051905090565b5f80fd5b5f80fd5b5f80fd5b5f601f19601f8301169050919050565b7f4e487b71000000000000000000000000000000000000000000000000000000005f52604160045260245ffd5b6200033182620002e9565b810181811067ffffffffffffffff82111715620003535762000352620002f9565b5b80604052505050565b5f62000367620002d4565b905062000375828262000326565b919050565b5f67ffffffffffffffff821115620003975762000396620002f9565b5b602082029050602081019050919050565b5f80fd5b5f73ffffffffffffffffffffffffffffffffffffffff82169050919050565b5f620003d782620003ac565b9050919050565b620003e981620003cb565b8114620003f4575f80fd5b50565b5f815190506200040781620003de565b92915050565b5f620004236200041d846200037a565b6200035c565b90508083825260208201905060208402830185811115620004495762000448620003a8565b5b835b81811015620004765780620004618882620003f7565b8452602084019350506020810190506200044b565b5050509392505050565b5f82601f830112620004975762000496620002e5565b5b8151620004a98482602086016200040d565b91505092915050565b5f819050919050565b620004c681620004b2565b8114620004d1575f80fd5b50565b5f81519050620004e481620004bb565b92915050565b5f8060408385031215620005035762000502620002dd565b5b5f83015167ffffffffffffffff811115620005235762000522620002e1565b5b620005318582860162000480565b92505060206200054485828601620004d4565b9150509250929050565b5f82825260208201905092915050565b7f6f776e65727320726571756972656400000000000000000000000000000000005f82015250565b5f62000594600f836200054e565b9150620005a1826200055e565b602082019050919050565b5f6020820190508181035f830152620005c58162000586565b9050919050565b7f696e76616c6964206e756d626572206f6620726571756972656420636f6e66695f8201527f726d6174696f6e73000000000000000000000000000000000000000000000000602082015250565b5f620006286028836200054e565b91506200063582620005cc565b604082019050919050565b5f6020820190508181035f83015262000659816200061a565b9050919050565b7f4e487b71000000000000000000000000000000000000000000000000000000005f52603260045260245ffd5b7f696e76616c6964206f776e6572000000000000000000000000000000000000005f82015250565b5f620006c3600d836200054e565b9150620006d0826200068d565b602082019050919050565b5f6020820190508181035f830152620006f481620006b5565b9050919050565b7f6f776e6572206e6f7420756e69717565000000000000000000000000000000005f82015250565b5f620007316010836200054e565b91506200073e82620006fb565b602082019050919050565b5f6020820190508181035f830152620007628162000723565b9050919050565b7f4e487b71000000000000000000000000000000000000000000000000000000005f52601160045260245ffd5b5f620007a282620004b2565b91507fffffffffffffffffffffffffffffffffffffffffffffffffffffffffffffffff8203620007d757620007d662000769565b5b600182019050919050565b611d0180620007f05f395ff3fe60806040526004361061009f575f3560e01c80639ace38c2116100635780639ace38c214610204578063a0e67e2b14610244578063c01a8c841461026e578063c642747414610296578063d0549b85146102be578063ee22610b146102e8576100f6565b8063025e7c27146100fa57806320ea8d86146101365780632e7700f01461015e57806333ea3dc81461018857806380f59a65146101c8576100f6565b366100f6573373ffffffffffffffffffffffffffffffffffffffff167f90890809c654f11d6e72a28fa60149770a0d11ec6c92319d6ceb2bb0a4ea1a1534476040516100ec92919061110a565b60405180910390a2005b5f80fd5b348015610105575f80fd5b50610120600480360381019061011b919061116c565b610310565b60405161012d91906111d6565b60405180910390f35b348015610141575f80fd5b5061015c6004803603810190610157919061116c565b61034a565b005b348015610169575f80fd5b50610172610638565b60405161017f91906111ef565b60405180910390f35b348015610193575f80fd5b506101ae60048036038101906101a9919061116c565b610644565b6040516101bf9594939291906112ac565b60405180910390f35b3480156101d3575f80fd5b506101ee60048036038101906101e9919061132e565b61074d565b6040516101fb919061136c565b60405180910390f35b34801561020f575f80fd5b5061022a6004803603810190610225919061116c565b610777565b60405161023b9594939291906112ac565b60405180910390f35b34801561024f575f80fd5b50610258610869565b604051610265919061143c565b60405180910390f35b348015610279575f80fd5b50610294600480360381019061028f919061116c565b6108f3565b005b3480156102a1575f80fd5b506102bc60048036038101906102b79190611588565b610be5565b005b3480156102c9575f80fd5b506102d2610ddb565b6040516102df91906111ef565b60405180910390f35b3480156102f3575f80fd5b5061030e6004803603810190610309919061116c565b610de1565b005b5f818154811061031e575f80fd5b905f5260205f20015f915054906101000a900473ffffffffffffffffffffffffffffffffffffffff1681565b60015f3373ffffffffffffffffffffffffffffffffffffffff1673ffffffffffffffffffffffffffffffffffffffff1681526020019081526020015f205f9054906101000a900460ff166103d3576040517f08c379a00000000000000000000000000000000000000000000000000000000081526004016103ca9061164e565b60405180910390fd5b80600480549050811061041b576040517f08c379a0000000000000000000000000000000000000000000000000000000008152600401610412906116b6565b60405180910390fd5b8160035f8281526020019081526020015f205f3373ffffffffffffffffffffffffffffffffffffffff1673ffffffffffffffffffffffffffffffffffffffff1681526020019081526020015f205f9054906101000a900460ff16156104b5576040517f08c379a00000000000000000000000000000000000000000000000000000000081526004016104ac9061171e565b60405180910390fd5b5f600484815481106104ca576104c961173c565b5b905f5260205f209060050201905060035f8581526020019081526020015f205f3373ffffffffffffffffffffffffffffffffffffffff1673ffffffffffffffffffffffffffffffffffffffff1681526020019081526020015f205f9054906101000a900460ff16610570576040517f08c379a0000000000000000000000000000000000000000000000000000000008152600401610567906117b3565b60405180910390fd5b6001816004015f82825461058491906117fe565b925050819055505f60035f8681526020019081526020015f205f3373ffffffffffffffffffffffffffffffffffffffff1673ffffffffffffffffffffffffffffffffffffffff1681526020019081526020015f205f6101000a81548160ff021916908315150217905550833373ffffffffffffffffffffffffffffffffffffffff167f1ad870073a851011d852bccd8634c29c7c0ac2265ba96d2bab01285001a465a860405160405180910390a350505050565b5f600480549050905090565b5f8060605f805f6004878154811061065f5761065e61173c565b5b905f5260205f2090600502019050805f015f9054906101000a900473ffffffffffffffffffffffffffffffffffffffff16816001015482600201836003015f9054906101000a900460ff1684600401548280546106bb9061185e565b80601f01602080910402602001604051908101604052809291908181526020018280546106e79061185e565b80156107325780601f1061070957610100808354040283529160200191610732565b820191905f5260205f20905b81548152906001019060200180831161071557829003601f168201915b50505050509250955095509550955095505091939590929450565b6003602052815f5260405f20602052805f5260405f205f915091509054906101000a900460ff1681565b60048181548110610786575f80fd5b905f5260205f2090600502015f91509050805f015f9054906101000a900473ffffffffffffffffffffffffffffffffffffffff16908060010154908060020180546107d09061185e565b80601f01602080910402602001604051908101604052809291908181526020018280546107fc9061185e565b80156108475780601f1061081e57610100808354040283529160200191610847565b820191905f5260205f20905b81548152906001019060200180831161082a57829003601f168201915b505050505090806003015f9054906101000a900460ff16908060040154905085565b60605f8054806020026020016040519081016040528092919081815260200182805480156108e957602002820191905f5260205f20905b815f9054906101000a900473ffffffffffffffffffffffffffffffffffffffff1673ffffffffffffffffffffffffffffffffffffffff16815260200190600101908083116108a0575b5050505050905090565b60015f3373ffffffffffffffffffffffffffffffffffffffff1673ffffffffffffffffffffffffffffffffffffffff1681526020019081526020015f205f9054906101000a900460ff1661097c576040517f08c379a00000000000000000000000000000000000000000000000000000000081526004016109739061164e565b60405180910390fd5b8060048054905081106109c4576040517f08c379a00000000000000000000000000000000000000000000000000000000081526004016109bb906116b6565b60405180910390fd5b8160035f8281526020019081526020015f205f3373ffffffffffffffffffffffffffffffffffffffff1673ffffffffffffffffffffffffffffffffffffffff1681526020019081526020015f205f9054906101000a900460ff1615610a5e576040517f08c379a0000000000000000000000000000000000000000000000000000000008152600401610a559061171e565b60405180910390fd5b8260035f8281526020019081526020015f205f3373ffffffffffffffffffffffffffffffffffffffff1673ffffffffffffffffffffffffffffffffffffffff1681526020019081526020015f205f9054906101000a900460ff1615610af8576040517f08c379a0000000000000000000000000000000000000000000000000000000008152600401610aef9061171e565b60405180910390fd5b5f60048581548110610b0d57610b0c61173c565b5b905f5260205f20906005020190506001816004015f828254610b2f919061188e565b92505081905550600160035f8781526020019081526020015f205f3373ffffffffffffffffffffffffffffffffffffffff1673ffffffffffffffffffffffffffffffffffffffff1681526020019081526020015f205f6101000a81548160ff021916908315150217905550843373ffffffffffffffffffffffffffffffffffffffff167f5cbe105e36805f7820e291f799d5794ff948af2a5f664e580382defb6339004160405160405180910390a35050505050565b60015f3373ffffffffffffffffffffffffffffffffffffffff1673ffffffffffffffffffffffffffffffffffffffff1681526020019081526020015f205f9054906101000a900460ff16610c6e576040517f08c379a0000000000000000000000000000000000000000000000000000000008152600401610c659061164e565b60405180910390fd5b5f600480549050905060046040518060a001604052808673ffffffffffffffffffffffffffffffffffffffff1681526020018581526020018481526020015f151581526020015f815250908060018154018082558091505060019003905f5260205f2090600502015f909190919091505f820151815f015f6101000a81548173ffffffffffffffffffffffffffffffffffffffff021916908373ffffffffffffffffffffffffffffffffffffffff160217905550602082015181600101556040820151816002019081610d419190611a5e565b506060820151816003015f6101000a81548160ff0219169083151502179055506080820151816004015550508373ffffffffffffffffffffffffffffffffffffffff16813373ffffffffffffffffffffffffffffffffffffffff167fd5a05bf70715ad82a09a756320284a1b54c9ff74cd0f8cce6219e79b563fe59d8686604051610dcd929190611b2d565b60405180910390a450505050565b60025481565b60015f3373ffffffffffffffffffffffffffffffffffffffff1673ffffffffffffffffffffffffffffffffffffffff1681526020019081526020015f205f9054906101000a900460ff16610e6a576040517f08c379a0000000000000000000000000000000000000000000000000000000008152600401610e619061164e565b60405180910390fd5b806004805490508110610eb2576040517f08c379a0000000000000000000000000000000000000000000000000000000008152600401610ea9906116b6565b60405180910390fd5b8160035f8281526020019081526020015f205f3373ffffffffffffffffffffffffffffffffffffffff1673ffffffffffffffffffffffffffffffffffffffff1681526020019081526020015f205f9054906101000a900460ff1615610f4c576040517f08c379a0000000000000000000000000000000000000000000000000000000008152600401610f439061171e565b60405180910390fd5b5f60048481548110610f6157610f6061173c565b5b905f5260205f209060050201905060025481600401541015610fb8576040517f08c379a0000000000000000000000000000000000000000000000000000000008152600401610faf90611ba5565b60405180910390fd5b6001816003015f6101000a81548160ff0219169083151502179055505f815f015f9054906101000a900473ffffffffffffffffffffffffffffffffffffffff1673ffffffffffffffffffffffffffffffffffffffff168260010154836002016040516110249190611c4d565b5f6040518083038185875af1925050503d805f811461105e576040519150601f19603f3d011682016040523d82523d5f602084013e611063565b606091505b50509050806110a7576040517f08c379a000000000000000000000000000000000000000000000000000000000815260040161109e90611cad565b60405180910390fd5b843373ffffffffffffffffffffffffffffffffffffffff167f5445f318f4f5fcfb66592e68e0cc5822aa15664039bd5f0ffde24c5a8142b1ac60405160405180910390a35050505050565b5f819050919050565b611104816110f2565b82525050565b5f60408201905061111d5f8301856110fb565b61112a60208301846110fb565b9392505050565b5f604051905090565b5f80fd5b5f80fd5b61114b816110f2565b8114611155575f80fd5b50565b5f8135905061116681611142565b92915050565b5f602082840312156111815761118061113a565b5b5f61118e84828501611158565b91505092915050565b5f73ffffffffffffffffffffffffffffffffffffffff82169050919050565b5f6111c082611197565b9050919050565b6111d0816111b6565b82525050565b5f6020820190506111e95f8301846111c7565b92915050565b5f6020820190506112025f8301846110fb565b92915050565b5f81519050919050565b5f82825260208201905092915050565b5f5b8381101561123f578082015181840152602081019050611224565b5f8484015250505050565b5f601f19601f8301169050919050565b5f61126482611208565b61126e8185611212565b935061127e818560208601611222565b6112878161124a565b840191505092915050565b5f8115159050919050565b6112a681611292565b82525050565b5f60a0820190506112bf5f8301886111c7565b6112cc60208301876110fb565b81810360408301526112de818661125a565b90506112ed606083018561129d565b6112fa60808301846110fb565b9695505050505050565b61130d816111b6565b8114611317575f80fd5b50565b5f8135905061132881611304565b92915050565b5f80604083850312156113445761134361113a565b5b5f61135185828601611158565b92505060206113628582860161131a565b9150509250929050565b5f60208201905061137f5f83018461129d565b92915050565b5f81519050919050565b5f82825260208201905092915050565b5f819050602082019050919050565b6113b7816111b6565b82525050565b5f6113c883836113ae565b60208301905092915050565b5f602082019050919050565b5f6113ea82611385565b6113f4818561138f565b93506113ff8361139f565b805f5b8381101561142f57815161141688826113bd565b9750611421836113d4565b925050600181019050611402565b5085935050505092915050565b5f6020820190508181035f83015261145481846113e0565b905092915050565b5f80fd5b5f80fd5b7f4e487b71000000000000000000000000000000000000000000000000000000005f52604160045260245ffd5b61149a8261124a565b810181811067ffffffffffffffff821117156114b9576114b8611464565b5b80604052505050565b5f6114cb611131565b90506114d78282611491565b919050565b5f67ffffffffffffffff8211156114f6576114f5611464565b5b6114ff8261124a565b9050602081019050919050565b828183375f83830152505050565b5f61152c611527846114dc565b6114c2565b90508281526020810184848401111561154857611547611460565b5b61155384828561150c565b509392505050565b5f82601f83011261156f5761156e61145c565b5b813561157f84826020860161151a565b91505092915050565b5f805f6060848603121561159f5761159e61113a565b5b5f6115ac8682870161131a565b93505060206115bd86828701611158565b925050604084013567ffffffffffffffff8111156115de576115dd61113e565b5b6115ea8682870161155b565b9150509250925092565b5f82825260208201905092915050565b7f6e6f74206f776e657200000000000000000000000000000000000000000000005f82015250565b5f6116386009836115f4565b915061164382611604565b602082019050919050565b5f6020820190508181035f8301526116658161162c565b9050919050565b7f747820646f6573206e6f742065786973740000000000000000000000000000005f82015250565b5f6116a06011836115f4565b91506116ab8261166c565b602082019050919050565b5f6020820190508181035f8301526116cd81611694565b9050919050565b7f747820616c726561647920636f6e6669726d65640000000000000000000000005f82015250565b5f6117086014836115f4565b9150611713826116d4565b602082019050919050565b5f6020820190508181035f830152611735816116fc565b9050919050565b7f4e487b71000000000000000000000000000000000000000000000000000000005f52603260045260245ffd5b7f7478206e6f7420636f6e6669726d6564000000000000000000000000000000005f82015250565b5f61179d6010836115f4565b91506117a882611769565b602082019050919050565b5f6020820190508181035f8301526117ca81611791565b9050919050565b7f4e487b71000000000000000000000000000000000000000000000000000000005f52601160045260245ffd5b5f611808826110f2565b9150611813836110f2565b925082820390508181111561182b5761182a6117d1565b5b92915050565b7f4e487b71000000000000000000000000000000000000000000000000000000005f52602260045260245ffd5b5f600282049050600182168061187557607f821691505b60208210810361188857611887611831565b5b50919050565b5f611898826110f2565b91506118a3836110f2565b92508282019050808211156118bb576118ba6117d1565b5b92915050565b5f819050815f5260205f209050919050565b5f6020601f8301049050919050565b5f82821b905092915050565b5f6008830261191d7fffffffffffffffffffffffffffffffffffffffffffffffffffffffffffffffff826118e2565b61192786836118e2565b95508019841693508086168417925050509392505050565b5f819050919050565b5f61196261195d611958846110f2565b61193f565b6110f2565b9050919050565b5f819050919050565b61197b83611948565b61198f61198782611969565b8484546118ee565b825550505050565b5f90565b6119a3611997565b6119ae818484611972565b505050565b5b818110156119d1576119c65f8261199b565b6001810190506119b4565b5050565b601f821115611a16576119e7816118c1565b6119f0846118d3565b810160208510156119ff578190505b611a13611a0b856118d3565b8301826119b3565b50505b505050565b5f82821c905092915050565b5f611a365f1984600802611a1b565b1980831691505092915050565b5f611a4e8383611a27565b9150826002028217905092915050565b611a6782611208565b67ffffffffffffffff811115611a8057611a7f611464565b5b611a8a825461185e565b611a958282856119d5565b5f60209050601f831160018114611ac6575f8415611ab4578287015190505b611abe8582611a43565b865550611b25565b601f198416611ad4866118c1565b5f5b82811015611afb57848901518255600182019150602085019450602081019050611ad6565b86831015611b185784890151611b14601f891682611a27565b8355505b6001600288020188555050505b505050505050565b5f604082019050611b405f8301856110fb565b8181036020830152611b52818461125a565b90509392505050565b7f63616e6e6f7420657865637574652074780000000000000000000000000000005f82015250565b5f611b8f6011836115f4565b9150611b9a82611b5b565b602082019050919050565b5f6020820190508181035f830152611bbc81611b83565b9050919050565b5f81905092915050565b5f8154611bd98161185e565b611be38186611bc3565b9450600182165f8114611bfd5760018114611c1257611c44565b60ff1983168652811515820286019350611c44565b611c1b856118c1565b5f5b83811015611c3c57815481890152600182019150602081019050611c1d565b838801955050505b50505092915050565b5f611c588284611bcd565b915081905092915050565b7f7478206661696c656400000000000000000000000000000000000000000000005f82015250565b5f611c976009836115f4565b9150611ca282611c63565b602082019050919050565b5f6020820190508181035f830152611cc481611c8b565b905091905056fea264697066735822122081d465f22750b45c71c702607aec965048c5ff1920332aaee290d46814c1cf8064736f6c63430008150033",
  "immutableReferences": {},
  "source": "// SPDX-License-Identifier: MIT\r\npragma solidity ^0.8.9;\r\n\r\ncontract MultiSigWallet {\r\n    event Deposit(address indexed sender,uint amount, uint balance);\r\n    event SubmitTransaction(\r\n        address indexed owner,\r\n        uint indexed txIndex,\r\n        address indexed to,\r\n        uint value,\r\n        bytes data\r\n    );\r\n    event ConfirmTransaction(address indexed owner,uint indexed txIndex);\r\n    event RevokeTransaction(address indexed owner,uint indexed  txIndex);\r\n    event ExecuteTransaction(address indexed owner,uint indexed txIndex);\r\n\r\n    address[] public owners;\r\n    mapping(address => bool) isOwner;\r\n    uint public numConfirmationsRequired;\r\n\r\n    struct Transaction {\r\n        address to;\r\n        uint value;\r\n        bytes data;\r\n        bool executed;\r\n        uint numConfirmations;\r\n    }\r\n    mapping(uint => mapping(address => bool)) public isConfirmed; //txId => address => true or false\r\n\r\n    Transaction[] public transactions; //transactions array with type Transaction, access tx's with transactions['index']\r\n\r\n    modifier onlyOwner() {\r\n        require(isOwner[msg.sender],\"not owner\");\r\n        _;\r\n    }\r\n\r\n    modifier txExists(uint _txIndex) {\r\n        require(_txIndex < transactions.length,\"tx does not exist\" );\r\n        _;\r\n    }\r\n    modifier notExecuted(uint _txIndex) {\r\n        require(!isConfirmed[_txIndex][msg.sender],\"tx already confirmed\");\r\n        _;\r\n    }\r\n    modifier notConfirmed(uint _txIndex) {\r\n        require(!isConfirmed[_txIndex][msg.sender],\"tx already confirmed\");\r\n        _;\r\n    }\r\n    \r\n\r\n\r\n    constructor(address[] memory _owners,uint _numConfirmationsRequired)  {\r\n        require(_owners.length > 0,\"owners required\");\r\n        require(_numConfirmationsRequired > 0 && _numConfirmationsRequired <= _owners.length,\"invalid number of required confirmations\");\r\n\r\n        for(uint i = 0;i<_owners.length;i++) {\r\n            address owner = _owners[i];\r\n            require(owner != address(0),\"invalid owner\");\r\n            require(!isOwner[owner],\"owner not unique\");\r\n\r\n            isOwner[owner] = true;\r\n            owners.push(owner);\r\n        }\r\n        numConfirmationsRequired = _numConfirmationsRequired;\r\n    }\r\n    receive() external payable {\r\n        emit Deposit(msg.sender, msg.value, address(this).balance);\r\n    }\r\n\r\n    function submitTransaction(address _to,uint _value, bytes memory _data) public onlyOwner {\r\n        uint txIndex = transactions.length;\r\n        transactions.push(\r\n            Transaction({\r\n                to:_to,\r\n                value:_value,\r\n                data:_data,\r\n                executed:false,\r\n                numConfirmations:0\r\n            })\r\n        );\r\n        emit SubmitTransaction(msg.sender, txIndex, _to, _value, _data);\r\n    }\r\n\r\n    function confirmTransaction(uint _txIndex) public onlyOwner txExists(_txIndex) notExecuted(_txIndex) notConfirmed(_txIndex){\r\n        Transaction storage transaction = transactions[_txIndex];\r\n        transaction.numConfirmations +=1;\r\n        isConfirmed[_txIndex][msg.sender] = true;\r\n\r\n        emit ConfirmTransaction(msg.sender, _txIndex);\r\n    }\r\n    function executeTransaction(uint _txIndex) public onlyOwner txExists(_txIndex) notExecuted(_txIndex) {\r\n        Transaction storage transaction = transactions[_txIndex];\r\n        require(transaction.numConfirmations >= numConfirmationsRequired,\"cannot execute tx\");\r\n        transaction.executed = true; //executed!\r\n\r\n        (bool success, ) = transaction.to.call{value:transaction.value}(transaction.data); //executing tx here\r\n        require(success,\"tx failed\");\r\n        emit ExecuteTransaction(msg.sender, _txIndex);\r\n    }\r\n    function revokeConfirmation(uint _txIndex) public onlyOwner txExists(_txIndex) notExecuted(_txIndex) {\r\n        //can revoke confirmation if tx is not executed !\r\n\r\n        Transaction storage transaction = transactions[_txIndex];\r\n        require(isConfirmed[_txIndex][msg.sender],\"tx not confirmed\");\r\n\r\n        transaction.numConfirmations -= 1 ;\r\n        isConfirmed[_txIndex][msg.sender] = false;\r\n        emit RevokeTransaction(msg.sender,_txIndex);\r\n    }\r\n    //GETTERS \r\n    function getOwners() public view returns(address[] memory) {\r\n        return owners;\r\n    }\r\n    function getTransactionCount() public view returns (uint) {\r\n        return transactions.length;\r\n    }\r\n    function getTransaction(uint _txIndex) public view returns(address to,uint value,bytes memory data,bool executed,uint numConfirmations) {\r\n        Transaction storage transaction = transactions[_txIndex];\r\n        return(\r\n            transaction.to,\r\n            transaction.value,\r\n            transaction.data,\r\n            transaction.executed,\r\n            transaction.numConfirmations\r\n        );\r\n    }\r\n}",
  "sourcePath": "C:\\Users\\bugra\\Desktop\\cs50w-Projects\\Project1\\multisigwallet1\\contracts\\MultiSigWallet.sol",
  "compiler": {
    "name": "solc",
    "version": "0.8.21+commit.d9974bed.Emscripten.clang"
  },
  "schemaVersion": "3.4.16",
  "updatedAt": "2023-12-06T12:56:27.228Z",
  "networkType": "ethereum",
  "devdoc": {
    "kind": "dev",
    "methods": {},
    "version": 1
  },
  "userdoc": {
    "kind": "user",
    "methods": {},
    "version": 1
  }
}